:020000040800F2
:100000009868002011030008A91E00085B1E000864
:10001000A51E0008251D0008232800080000000078
:10002000000000000000000000000000790200084D
:10003000291D000800000000BD0200089D210008E5
:100040002B0300082B0300082B0300082B030008D8
:100050002B0300082B0300082B0300082B030008C8
:100060002B0300082B0300082B0300082B030008B8
:100070002B0300082B0300082B0300082B030008A8
:100080002B0300082B0300082B0300082B03000898
:100090002B0300082B0300082B0300082B03000888
:1000A0002B0300082B0300082B0300082B03000878
:1000B0002B0300080D220008212300082B03000851
:1000C0002B0300082B0300082B0300082B03000858
:1000D0002B0300082B0300082B0300083125000820
:1000E0002B0300082B0300082B0300082B03000838
:1000F0002B0300082B0300082B0300082B03000828
:100100002B0300082B0300082B0300082B03000817
:100110002B0300082B0300082B030008A123000871
:100120002B0300082B0300082B0300082B030008F7
:1001300000F002F800F090F80AA090E8000C824469
:100140008344AAF10107DA4501D100F085F8AFF246
:10015000090EBAE80F0013F0010F18BFFB1A43F0A5
:10016000010318473061000050610000103A24BFBD
:1001700078C878C1FAD8520724BF30C830C144BF0C
:1001800004680C607047000000230024002500264E
:10019000103A28BF78C1FBD8520728BF30C148BFEA
:1001A0000B6070476E2900F0B583702900F02F872F
:1001B000662905F0DD87652905F0DA87672905F0EE
:1001C000D7876129AFF3008003681B0A28BF41F07D
:1001D0008001692900F01C81642900F019817529CA
:1001E00000F016816F2900F0BC86782900F0FB86AC
:1001F000E92900F05786E42900F05486F52900F03B
:100200005186EF2900F0B986F82900F0FA860368D4
:10021000DB0928BF41F08001632900F0C6857329FE
:1002200000F0CB85E32901F02980F32901F02E802D
:10023000002070471FB500F08DFF04000020002152
:1002400005F034FC401C60600020002105F018FC23
:10025000E0601FBD10B510BD01F020F91146FFF799
:10026000E9FF02F047FC01F04CF903B4FFF7F2FF9D
:1002700003BC02F0F3FA0000224B19680868B0E8EA
:10028000F00F80F30988BFF36F8F4FF0000080F309
:1002900011884EF00D0E70470000000006480068FF
:1002A000006880F3088862B661B6BFF34F8FBFF372
:1002B0006F8F00DF00BF00BF08ED00E0EFF30980A3
:1002C000BFF36F8F0F4B1A6820E9F00F106008B56D
:1002D0004FF0500080F31188BFF34F8FBFF36F8F43
:1002E00004F008FD4FF0000080F31188BDE80840DD
:1002F00019680868B0E8F00F80F30988BFF36F8FC2
:10030000704700BF38000020EFF305807047000001
:100310000948804709480047FEE7FEE7FEE7FEE799
:10032000FEE7FEE7FEE7FEE7FEE7FEE704480549D5
:10033000054A064B70470000AD2100083101000856
:10034000986200209868002098640020986400203B
:10035000704700001CB50C46064B7B446946009074
:10036000204600F000FD04460020694600F00EFD26
:1003700020461CBD2F0A00000FB4044910B503AA83
:10038000029800F01FFD10BC5DF814FBAC000020CB
:100390000FB41CB5084B06AA7B446946009005982B
:1003A00000F0E1FC04460020694600F0EFFC204626
:1003B0001CBC5DF814FB0000F109000070B50C4690
:1003C0000546012A05D02878800600D5EA69002371
:1003D00002E0012305E05B1C934202D2E05C0028AE
:1003E000F9D1A869E618C01AA861286A18442862D9
:1003F000284600F0FDF904E0D5E9012114F8010BCD
:100400009047B442F8D3284600F008FA70BD0000C7
:100410002DE9F0410646002410687529314616A5DD
:1004200010D000F00CFA002802DA404213A507E0D1
:1004300031688A0701D512A502E0490704D511A544
:10044000012401E000F004FA00210A2206F1240749
:1004500009E0B0FBF2FCB0FBF2F302FB1C00303011
:1004600078541846491C0028F3D123462A463046C2
:10047000BDE8F04100F0F5B9000000002D000000DB
:100480002B000000200000002DE9F05F89460446A3
:100490004FF0000ADFF874B1FB44C0F820A02046FA
:1004A000E1688847002874D0252806D0D4E90121C6
:1004B0009047206A401C2062F1E700265F462046F4
:1004C000E16888472028054607DB312D05D27819D9
:1004D00010F8200C08B10643F1E7B00701D526F06B
:1004E0000406C4F81CA00027C4F818A02A2D09D0BF
:1004F000284602F0ACF938B304EB8708303DC8F861
:10050000185019E059F8041B204604EB870291614A
:10051000E1688847012F054618D1E069002820DAF4
:1005200026F020061DE0D8F8180000EB800005EB4F
:1005300040003038C8F818002046E1688847054672
:1005400002F085F90028EED1012F0AD02E2D08D116
:100550002046E16888477F1C0546022F46F02006AA
:10056000C4DBA069002803DA404246F00106A0611E
:10057000F00701D026F010066C2D0BD0682D09D0A5
:100580004C2D39D06A2D35D0742D35D07A2D33D0FD
:1005900016E038E0E1682F4620468847B842054615
:1005A00009D16C2F26D04FF48060E16806432046C5
:1005B0008847054604E06C2F1AD04FF4807006433C
:1005C0000DB3A5F14100192802D8203546F4006684
:1005D0004A462946204626604E46FFF7E3FD80B195
:1005E00001280BD0F61D26F0070000F1080956E798
:1005F0004020E4E78020D8E70020D6E706F1040990
:100600004DE7284652E7206ABDE8F09FD85C00001D
:1006100070B5064600F0E8F80468054630460A2240
:10062000002100F0FFFC2C6070BD0000014A00F0CA
:1006300031BD0000E800002030B505460B462A46D3
:1006400013F8014B12F8010B08B1A042F8D01CB10D
:10065000002802D06D1CF1E7284630BD10B5431CC0
:1006600002E010F8011B71B18107FAD14FF001329D
:1006700002C88C1A8C4314EAC211F9D0C01A0A06B7
:1006800003D0C01E10BDC01A10BD0A0401D0801EC8
:1006900010BD0902FCD0401E10BD421E12F8013FE1
:1006A000002BFBD111F8013B002B02F8013BF9D1E3
:1006B0007047032A40F2308010F0030C00F01580E0
:1006C00011F8013BBCF1020F624498BF11F801CB55
:1006D00000F8013B38BF11F8013BA2F1040298BFBA
:1006E00000F801CB38BF00F8013B11F0030300F024
:1006F000F384083AC0F0088051F8043B083A51F8F6
:1007000004CBA0E80810F5E7121D5CBF51F8043BCC
:1007100040F8043BAFF30080D20724BF11F8013B3F
:1007200011F801CB48BF11F8012B24BF00F8013BA1
:1007300000F801CB48BF00F8012B704702F0FF031F
:1007400043EA032242EA024200F002B84FF00002FC
:100750000429C0F0128010F0030C00F01B80CCF1D3
:10076000040CBCF1020F18BF00F8012BA8BF20F841
:10077000022BA1EB0C0100F00DB85FEAC17C24BF95
:1007800000F8012B00F8012B48BF00F8012B70473F
:100790004FF0000200B5134694469646203922BF1A
:1007A000A0E80C50A0E80C50B1F12001BFF4F7AF65
:1007B000090728BFA0E80C5048BF0CC05DF804EB47
:1007C000890028BF40F8042B08BF704748BF20F8B5
:1007D000022B11F0804F18BF00F8012B70477047B3
:1007E000704770477047000000487047386200202B
:1007F00070B5044685690068C10601D5302600E061
:100800002026C00707D070BDD4E9012130469047AB
:10081000206A401C20626D1EF6D570BD70B504467E
:1008200085690078C00707D170BDD4E90121202077
:100830009047206A401C20626D1EF6D570BD096885
:100840004A0501D540B27047C905FCD500B27047D2
:1008500009684A0501D5C0B27047C905FCD580B208
:1008600070472DE9F0470D4699469246044600F13F
:1008700024080168880604D5E06921F01001216090
:1008800000E00120A84201DD471B00E00027A1692C
:100890007A1902EB0900081AA0612078C00602D478
:1008A0002046FFF7A5FF002608E0D4E901211AF849
:1008B00006009047206A401C761C20624E45F4DBFF
:1008C0002078C0060AD52046FFF792FF06E0D4E95B
:1008D000012130209047206A401C2062381EA7F179
:1008E0000107F4DC07E0D4E9012118F8050090477E
:1008F000206A401C2062281EA5F10105F3DC204679
:10090000FFF78CFF2078000602D50220BDE8F087B3
:100910000120FBE711680268006A530501D50870E1
:100920000AE0D30501D5088006E0130603D5C217F7
:10093000C1E9000200E008600120704770472DE91E
:10094000FF4F0C461E464FF0FF378BB0D2E9000137
:10095000DDF860800A908A46C1F30A5505B93D4624
:10096000002108464FF00000BAF1000F00F44000EB
:1009700005DA00EB80004FF4400101EA50004FEA35
:100980009059B9F1010F00DDB9460A9850EA4A00C2
:100990000ED044F61050A5F2FF3545432F14B8F1A0
:1009A000000F1ED07542291E1EDDC9F100021CE099
:1009B000B8F1010F4FF0000001D0302103E0F24305
:1009C00005E02154401CB042FBDB304600220021F0
:1009D00021540B99C1F80880C1E900200FB0BDE88F
:1009E000F08FBD1B6D1CDEE74A4600DA694206A89F
:1009F00000F0A0FC06AB93E8070003AB83E8070018
:100A000050460A9900F0C6FD8DE80700A0F5005099
:100A10001F3800900398002D0ADD42F21F014A465C
:100A20000844002303A90390684601F02FF809E069
:100A3000A0F500504A461F38002303A903906846DA
:100A400001F039F88DE807000004000C03D04FF0E6
:100A5000FF30410800E01046B8F1000F03D000223B
:100A6000009215461EE0751E05D400F077FB30326B
:100A700062556D1EF9D5B3460122084302D000220B
:100A80007F1C04E02078302801D100227F1E002A3C
:100A9000099784D01DE0112D07DA00F05FFB30329A
:100AA00062556D1C50EA0102F5D1084302D000984E
:100AB000C8B10EE00021681E05E0235C625C63544F
:100AC0002254401E491C8142F7DBAB46A81B401E46
:100AD0000990002004F80B000B98099AC0F80880D0
:100AE000C0E9002B7AE711264FF0000857E72DE9FF
:100AF000F04F88460446D21D22F0070191B0D1E99B
:100B00000001CDE90A0101F08EFE02460B98C00FEC
:100B100001D02D2007E02068810701D52B2002E0BD
:100B2000202101EAC000032A099001D0072A05DB31
:100B300003464146204600F057FB0BE12078800633
:100B400001D5E06900E00620B8F1650F814606D0C6
:100B5000B8F1660F18D0B8F1670F70D131E00020FE
:100B6000B9F1110F009001DB112301E009F101033C
:100B70000AAA01A90CA8FFF7E2FEDDE90C70002625
:100B800009F10105834647E001204B4600904FF0F4
:100B900000470AAA01A90CA8FFF7D1FEDDE90DB0B4
:100BA0000C995D46002610B909F101000D18B9EB4A
:100BB000050003D4C0F1FF3609F10105A5EB0900DA
:100BC0002BE0B9F1010F01DA4FF001090020B9F172
:100BD000110F0090484601DD112300E003460AAAE8
:100BE00001A90CA8FFF7ABFEDDE90C704D4600260D
:100BF0008346207800070AD4AB4500DA5D4601A899
:100C0000012D04DD411911F8011C302907D04F4591
:100C100002DA17F1040F04DA012082460FE06D1E9C
:100C2000EEE7002F02DCED1B3E4403E0781CA842F7
:100C300000DD7D1CB81B00F1010A4FF00047207851
:100C4000000703D4AA4501DB4FF0FF3A0021B7F1BA
:100C5000004F0DF143088DF8431024D002202B23C0
:100C6000002F01DA7F422D230A21021EA0F101008C
:100C700000DC5FB197FBF1FC97FBF1F201FB1C7C00
:100C800017460CF1300C08F801CDEEE7A8F1010091
:100C900003702188090501D5452100E06521A0F1F7
:100CA000010800F8011C09980FA9A1EB0807FF1D16
:100CB00000B10120411901EBEA70A1693844081A1A
:100CC000401EA0612078C00602D42046FFF790FDA8
:100CD000099828B1D4E901219047206A401C20627C
:100CE0002078C00622D52046FFF782FD1EE0002EA8
:100CF00004DBB34502DD01A8805D00E03020D4E9CB
:100D000001219047206A401C2062761CAAF1010054
:100D10005FEA000A0AD100F01DFAC0680168405C71
:100D2000D4E901219047206A401C2062281EA5F1C9
:100D30000105DCDC07E0D4E9012118F8010B90473C
:100D4000206A401C2062381EA7F10107F3DC204610
:100D5000FFF764FD032011B041E6000001694A1C61
:100D600002610878704700B58FB0CDE901310021EC
:100D7000059105497944CDE9031011466846FFF70E
:100D800083FB0FB000BD0000E5FFFFFF0A6802F81B
:100D9000010B0A60704710B5436913B1AFF30080CF
:100DA00001E0FFF70BFB012010BD127800F12401D8
:100DB0000A7000224A700122EDE711684FF0FF32FD
:100DC000E9E70000074B70B50D467B44FFF7CBFF0A
:100DD0000446284600F020FB10B14FF0FF3070BDF4
:100DE000204670BDA71B00002DE9FF5F15468A460F
:100DF0000446DFF8AC80F8440027D8E900103E46EE
:100E0000CDE9001010E03AF816106A4602A800F08A
:100E100007FB411C07D02178890603D5E269391800
:100E200091420DD80744761C2078800602D5E069EF
:100E3000B84205DDAE42E6DB3AF816000028E2D102
:100E4000A069C01BA0612046FFF7D2FCD8E90010C2
:100E5000CDE90010002017E03AF818106A4602A801
:100E600000F0DEFAB0F1FF3F81460BD000250DF116
:100E7000080B05E0D4E901211BF8050090476D1C23
:100E80004D45F7D308F10100B0428046E4DB206A0B
:100E9000384420622046FFF7C1FCBDE8FF9F0000F8
:100EA0008E5300002DE9F0418046D21D22F007024A
:100EB0000025D2E90002F52915A614D0011E72F111
:100EC000000106DA0023D0EB030063EB020211A657
:100ED00008E0D8F800108B0701D50FA602E04907FB
:100EE00001D50EA601251146002408F1240704E0CF
:100EF00000F034F930323A55641C50EA0102F7D15F
:100F00002B46324621464046BDE8F041FFF7A9BCDA
:100F1000000000002D0000002B0000002000000059
:100F200030B4002100F1240408E002F00705D208E3
:100F3000303542EA4372DB086554491C52EA030526
:100F4000F3D10468002310A2250707D5A40600D416
:100F500021B1C46901230DA2641EC46130BCFFF736
:100F600080BC10B5044621461068FFF771FC0246AC
:100F70002046BDE810400023D2E7D21D22F0070131
:100F8000D1E90023CCE700000000000030000000A1
:100F9000F0B40D460188090502D5214C7C4402E0DD
:100FA0001F4C7C440E34002100F1240608E002F0BE
:100FB0000F071209E75D42EA03721B097754491CC7
:100FC00052EA0307F3D102780023120704D5702DEB
:100FD00006D009B1022311342246F0BCFFF741BC10
:100FE00001231034F8E770B504460D462146106819
:100FF000FFF72EFC024629462046BDE8704000233C
:10100000C6E7D21D22F00703D3E90023C0E7036837
:10101000126843F0200303600823C3610023B7E78D
:10102000F05100002DE9F04791460F4680460446F6
:10103000002614F8015B2DB100F084F80068405DD3
:10104000C007F6D12B2D02D02D2D18D0641E4A4694
:101050003946204600F01EF927B13968A14201D176
:10106000C7F800804FF0020471050BD540420028FC
:1010700003DDFFF7B9FB0460A007BDE8F08746F485
:101080008066E4E70028F8DAFFF7AEFB04606FF053
:101090000040F2E72DE9F04115460E46040002D16A
:1010A0002C6804B90BA4204600F0EAF90444207827
:1010B00070B127463146384600F0D2F90444207812
:1010C00010B1002004F8010B38462C60BDE8F08117
:1010D0000027F9E70000000010B5203AC0F00B80AF
:1010E000B1E81850203AA0E81850B1E81850A0E82C
:1010F0001850BFF4F5AF5FEA027C24BFB1E8185086
:10110000A0E8185044BF18C918C0BDE810405FEAF5
:10111000827C24BF51F8043B40F8043B08BF704771
:10112000D20728BF31F8023B48BF11F8012B28BF76
:1011300020F8023B48BF00F8012B70470048704779
:101140003862002010B500F005F8001D10BD00BF8A
:101150005D490000004870475862002030B5B0F18A
:101160000A024FEA900E71F100034EEA817EB0EB65
:101170000E0061EB91014FEA101E4EEA017E10EB6A
:101180000E0041EB11114FEA102E4EEA016E10EBEA
:101190000E0041EB11214FEA104E4EEA014E10EBCA
:1011A0000E0041EB1141401841F100014FEAD0001F
:1011B00040EA41704FEAD10110EB80054FEA81040B
:1011C00044EA907444EB01046D1944EB0404521B8F
:1011D000A3414FF0000348BF0A3200D530BD401C88
:1011E00041F1000130BD00002DE9F0411F460446E9
:1011F00003260168072A01F4006004DB08B116A584
:1012000005E016A503E008B115A500E015A521F03D
:1012100010002060A069C01EA0610FB1401EA06137
:101220002046FFF7E5FA4FB1D4E90121384690474F
:10123000206A401C2062C01C206206E0206AFAE797
:10124000D4E9012115F8010B9047761EF8D220460B
:10125000FFF7E4FABDE8F0814E414E006E616E008A
:10126000494E4600696E660010B5436913B1AFF38D
:10127000008001E0FFF7B8FD012010BD128800F1E9
:10128000240182840022C2840122EDE711684FF01C
:10129000FF32E9E72DE9F05F824615468B460027CD
:1012A0000AF10104B9460078302801D09DB113E05D
:1012B00014F8010B0127782803D0582801D045B134
:1012C0000AE00DB1102D07D1002714F8010B1025ED
:1012D00002E0082500E00A250026B0460EE005FBE6
:1012E000080005FB06F101271FFA80F801EB104604
:1012F000B6F5803F00D3B94614F8010B294600F03B
:10130000F2F80028EBDABBF1000F05D00FB1641E34
:1013100000E05446CBF80040B9F1000F06D0FFF7CB
:1013200063FA02210160C81EBDE8F09F48EA06404A
:10133000FAE700002DE9F047814616468AB03548A5
:1013400078440DC88DE80D0032487844801C03AC09
:101350000DC884E80D0041F69B300844372190FB0E
:10136000F1F290FBF1F5A5F1800501FB12041B3CA5
:1013700002D56442012000E00020DFF898A08046FA
:101380000027FA44AAF1BE0A0EE0E0070AD032466E
:10139000684607EB470101230AEB810100F08BFB54
:1013A0008DE8070064107F1C002CEED1194F7F449C
:1013B000AE3F19E0E80715D007EB04100DF1180A4D
:1013C00090E80E008AE80E00C068F04201D198193A
:1013D00008903246012306A903A800F06CFB03AB7A
:1013E00083E807006D10641C002DE3D14FF001036A
:1013F00032466946B8F1000F03A802D000F046FB60
:1014000001E000F058FBC9E90001C9F808200AB062
:10141000BDE8F087F04E0000007B00F080007047D0
:1014200070B516460C460546FFF78CFE036893F828
:101430000101012806D0FF2C0FD8185D68B10120EA
:101440002C7070BDD3F807013246214603F2071312
:1014500003442846BDE8704018474FF0FF3070BD88
:1014600030B503461D781DB10A4603E0AC4201D1F8
:10147000181A30BD12F8014B002CF7D15B1CF1E7B4
:1014800030B503461D783DB10A4612F8014B1CB138
:10149000AC42FAD15B1CF5E7181A30BD7546FFF770
:1014A0004DFEAE4605006946534620F007008546CE
:1014B00018B020B5FEF73AFFBDE820404FF0000617
:1014C0004FF000074FF000084FF0000B21F007012C
:1014D000AC46ACE8C009ACE8C009ACE8C009ACE86F
:1014E000C0098D4670473A2800D2303820F02002DB
:1014F000412A01D3A2F13700884201D34FF0FF30D7
:10150000704710B50446AFF300802046BDE8104098
:10151000FEF7ABBE4FF0013C50F8042B51F8043BF2
:101520009A4221D1A2EB0C03934313EACC1317D1B7
:1015300050F8042B51F8043B9A4215D1A2EB0C034E
:10154000934313EACC130BD150F8042B51F8043B0E
:101550009A4209D1A2EB0C03934313EACC13DBD0DC
:101560004FF00000704700BFD01A01BAB1FA81F104
:1015700001F0180122FA01F0CB40C1F12001DBB2E9
:10158000C0B2C01A2CFA01F3D11A914311EAC31167
:10159000E6D170475FEA400C08BF91F0000F4FEAB8
:1015A0008C234FEAC12243EA51514FEA1C5018BF25
:1015B00000F5F0404FEA300018BF41F000415FEA0B
:1015C0006C5C00F02980BCF1FF3F08BF40F0804018
:1015D0007047130C06BF12044FF0100C4FF0000CB4
:1015E000130E04BF12020CF1080C130F04BF1201FA
:1015F0000CF1040C930F04BF92000CF1020CD30FFA
:1016000004BF52000CF1010C11464FF00002A0F192
:101610001F00A0EB0C00704711F0004F08BF70478F
:1016200031F000413FF4D5AF0B0C06BF09044FF079
:10163000100C4FF0000C0B0E04BF09020CF1080C4B
:101640000B0F04BF09010CF1040C8B0F04BF8900C0
:101650000CF1020CCB0F04BF49000CF1010CCCF1D2
:101660002003A0EB0C0022FA03F302FA0CF241EA89
:10167000030100F10100704720F07F4C80EA030075
:1016800023F07F47ACEB070303F57C5300F00040E9
:1016900003F1FF032DE980494FEA154B09B44FEAE6
:1016A000144325EA0B4E24EA03480FF2042606EB06
:1016B000132749083E785FEA320203FB0667C7F545
:1016C000000707FB06F64FEA54374FEAD64606F105
:1016D000020607FB066CCCF1005C4FEA1C472CEAC3
:1016E000074C07FB06F40CFB06F504EB15464FEA26
:1016F000961634BF00204FF000404FEAD13706FB6A
:1017000007FC4FEA1C4C0CFB0BF7D21B03FB0CF73E
:1017100061EB07010CFB0EF7B0EB074072EB1742D1
:101720000CFB08F734BFA2EB0742B2EB074261EBB8
:1017300017414FEA0C444FEA910706FB07FC4FEABA
:101740001C4C0CFB0BF7B0EBC74072EB573203FBA2
:101750000CF734BFA2EBC742B2EBC74261EB573183
:101760000CFB0EF7B0EBC70072EB57720CFB08F7DF
:1017700034BFA2EBC702B2EBC70261EB5771039F04
:101780004FEA816141EA921104EBCC044FEAD13770
:101790004FEA826206FB07FC42EA90124FEA806041
:1017A0004FEA1C4C0CFB0BF7D21B03FB0CF761EB55
:1017B00007010CFB0EF7B0EB074072EB17420CFB76
:1017C00008F734BFA2EB0742B2EB074261EB1741C7
:1017D0004FEA8C554FEA910704EB9C2406FB07FC6B
:1017E0004FEA1C4C0CFB0BF7B0EBC74072EB5732C7
:1017F00003FB0CF734BFA2EBC742B2EBC74261EB6D
:1018000057310CFB0EF7B0EBC70072EB57720CFBB5
:1018100008F734BFA2EBC702B2EBC70261EB577106
:1018200015EB4C254FEA816141EA92114FEA826241
:101830004FEAD13742EA901206FB07FC44F100045C
:101840004FEA80604FEA1C4C0CFB0BF7D21B03FBEA
:101850000CF761EB07010CFB0EF7B0EB074072EBE6
:1018600017420CFB08F734BFA2EB0742B2EB07426A
:1018700061EB174115EB1C154FEA813141EA9241AA
:101880004FEA823242EA90424FEA80304FEA0C76C9
:1018900044F1000448EA03434EEA0B484FF0000EBF
:1018A000B2EB080C71EB030724BF624639464EEBDE
:1018B0000E0E4FF0000B0018524149414BEB0B0B41
:1018C000B2EB080C71EB03077BF1000B24BF6246FF
:1018D00039464EEB0E0E4FF0000B001852414941B5
:1018E0004BEB0B0BB2EB080C71EB03077BF1000B1E
:1018F00024BF624639464EEB0E0E51EA020718BF6E
:1019000046F0010616EB0E7655F1000254F1000187
:1019100003D5BDE88901BDE80088BDE88901BDE8BF
:101920000048B619524141EB0101A3F10103704790
:1019300080807F7E7D7C7B7A79787776767574730C
:10194000727171706F6E6E6D6C6C6B6A6A696868CB
:10195000676666656464636362616160605F5F5E61
:101960005E5D5D5C5C5B5B5A5A59595858575756D7
:10197000565555555454535352525251515050503C
:101980004F4F4F4E4E4D4D4D4C4C4C4B4B4B4A4A8E
:101990004A494949484848474747474646464545D2
:1019A000454444444443434343424242424141410B
:1019B000002B9C4630D477002BD01CB54FEA37075C
:1019C00003B44FF010004FF01001BAF1000F06D031
:1019D000BCF1000FDCBF40F0080040F008014FF000
:1019E00000000FBCBDE810400BF1010BBBF1010F73
:1019F00008BF5FEA170722BF12F1010211F10101CE
:101A00004FF0004143F1000300F0004043EA0000C2
:101A10007047F9D35708D0E746EA064613F1400F5E
:101A20004FEA16461FDD13F1200FDFBF16430A46AB
:101A3000002120335B42BED0C3F1200746EA0646B0
:101A400002FA07F74FEA164646EA0706C3F12007EF
:101A500022FA03F201FA07F721FA03F14FF000032B
:101A600042EA0702A7E746EA020646EA06464FEAC6
:101A7000164646EA0106BCBF46EA0646360C4FF05B
:101A800000034FF000024FF0000194E72DE9804C75
:101A90009A46934670B491E8380007C831EA400C82
:101AA00048BF34EA430C03D5FFF7E6FDFFF780FF9C
:101AB000F0BCBDE8008C2DE9804C9A46934670B48A
:101AC00091E8380007C810F0804F08BF13F0804F2E
:101AD00003D100F005F8FFF76BFFF0BCBDE8008C08
:101AE00020F07F4780EA030023F07F4C07EB0C03D4
:101AF000A3F57C5300F00040A3F1FE0392F0000F29
:101B000000F0B38095F0000F00F077802DE90149D7
:101B10004FEA11404FEA144621EA004800FB06FC58
:101B200024EA064708FB06F607FB08F800FB07F760
:101B300018EB06484CEB164C4FEA124B18EB0748D3
:101B40004FEA15464CEB174022EA0B4E0BFB06FC06
:101B500025EA06470EFB06F607FB0EFE0BFB07F712
:101B60001EEB064E4CEB164C4FF000061EEB074EDC
:101B70004CEB174B18EB0B0840F1000018EB0E0B69
:101B800058EB000840F100008F1A4FF000013CBFF5
:101B9000C943661B14BFB5EB040C00213CBFC9430D
:101BA000F61B4FEA17444EEA8E0E27EA04454FEA29
:101BB0001C4704FB07622CEA074C05FB07F70CFBEC
:101BC00005F604FB0CFC16EB074642EB174216EB3E
:101BD0000C4642EB1C421BEB060658EB020241414D
:101BE00046EA9E0601D5BDE80189B619524141EB8E
:101BF0000101A3F10103BDE801894FEA14454FEA51
:101C0000114724EA054621EA074C05FB07F406FBC9
:101C100007F70CFB06F105FB0CFC11EB074144EB4D
:101C200017444FEA124711EB0C4144EB1C4422EAE3
:101C3000074C05FB07F206FB07F70CFB06F605FB56
:101C40000CFC16EB074642EB174216EB0C4642EB38
:101C50001C456A1854F1000148BF7047B61952413B
:101C600041EB0101A3F10103704795F0000F37D05C
:101C70004FEA11424FEA144721EA024624EA074C90
:101C800002FB07F106FB07F70CFB06F402FB0CFC5A
:101C900014EB074441EB17414FEA154714EB0C4492
:101CA00041EB1C4125EA074C02FB07F506FB07F751
:101CB0000CFB06F602FB0CFC16EB074645EB174542
:101CC00016EB0C4645EB1C42121951F1000148BFBE
:101CD0007047B619524141EB0101A3F1010370476E
:101CE0004FEA14454FEA114724EA054621EA074C1A
:101CF00005FB07F106FB07F70CFB06F24FF00006A9
:101D000005FB0CFC12EB074241EB174112EB0C42B6
:101D100051EB1C4148BF7047921841EB0101A3F100
:101D20000103704700BFFEE770472DE9F04102460E
:101D300000250026002000230024002791F803C07E
:101D40000CF00F0591F803C00CF0100CBCF1000F63
:101D500003D091F802C04CEA050591F800C0BCF12F
:101D6000000F31D0146800202BE04FF0010C0CFA6A
:101D700000F3B1F800C00CEA03069E4220D18300B4
:101D80004FF00F0C0CFA03F7BC4305FA03FC4CEAC6
:101D9000040491F803C0BCF1280F06D14FF0010CE8
:101DA0000CFA00FCC2F814C00AE091F803C0BCF1C0
:101DB000480F05D14FF0010C0CFA00FCC2F810C01E
:101DC000401C0828D1D31460B1F800C0BCF1FF0F4B
:101DD00034DD546800202EE000F1080C4FF00108BB
:101DE00008FA0CF3B1F800C00CEA03069E4221D1B8
:101DF00083004FF00F0C0CFA03F7BC4305FA03FC09
:101E00004CEA040491F803C0BCF1280F05D100F19D
:101E1000080C08FA0CF8C2F8148091F803C0BCF161
:101E2000480F07D100F1080C4FF0010808FA0CF830
:101E3000C2F81080401C0828CED35460BDE8F08161
:101E40000246002093680B400BB1012000E0002007
:101E50007047416170470161704700BFFEE70000B5
:101E60004CF6CC400149086070470000003000404B
:101E70004AF6AA200149086070470000003000407F
:101E80000149486070470000003000400149886007
:101E900070470000003000400149086070470000B2
:101EA0000030004000BFFEE77047000070B5002121
:101EB00000230F22C47804B3154C246804F4E064B2
:101EC000C4F5E064210AC1F10403CA40447804FA6D
:101ED00003F184781440214309010E4C0678A15582
:101EE000047804F01F050124AC4005786D11AD00A5
:101EF00005F1E025C5F8004109E0047804F01F056C
:101F00000124AC40044D0678761145F8264070BD9A
:101F10000CED00E000E400E080E100E00249014354
:101F2000024A1160704700000000FA050CED00E065
:101F300029B1064AD2690243044BDA6104E0034A3C
:101F4000D2698243014BDA61704700000010024001
:101F500029B1064A12690243044B1A6104E0034A9C
:101F600012698243014B1A61704700000010024061
:101F700029B1064A92690243044B9A6104E0034A7C
:101F800092698243014B9A61704700000010024041
:101F900029B1064AD2680243044BDA6004E0034ADE
:101FA000D2688243014BDA607047000000100240A3
:101FB00030B500210022002400232D4D6D6805F06E
:101FC0000C0121B1042905D0082923D105E0294DB0
:101FD000056022E0284D05601FE0254D6D6805F481
:101FE0007012234D6D6805F48034022505EB924292
:101FF0001CB9224D554305600BE01D4D6D6805F47D
:1020000000351DB11E4D5543056002E01A4D554384
:10201000056002E0174D056000BF00BF144D6D68FC
:1020200005F0F0010909174D6B5C0568DD4045605E
:102030000F4D6D6805F4E061090A124D6B5C45684F
:10204000DD4085600A4D6D6805F46051C90A0D4D8B
:102050006B5C4568DD40C560054D6D6805F4404129
:10206000890B094D6B5CC568B5FBF3F5056130BDA7
:102070000010024000127A00001BB70000093D006A
:10208000808D5B00140000202400002010B500F0BB
:1020900001F810BD0CB50020019000903348006895
:1020A00040F480303149086000BF3048006800F4D7
:1020B000003000900198401C0190009818B90198D8
:1020C000B0F5A06FF1D12948006800F4003010B1DC
:1020D0000120009001E0002000900098012843D1E9
:1020E0002348006840F01000214908600846006855
:1020F00020F0030008600846006840F00200086015
:102100001A484068194948600846406848600846CF
:10211000406840F4806048600846406820F47C10C5
:1021200048600846406840F48810486008460068E7
:1021300040F08070086000BF0C48006800F000703C
:102140000028F9D00948406820F00300074948609A
:102150000846406840F00200486000BF03484068FD
:1021600000F00C000828F9D10CBD0000001002405E
:1021700000200240042808D14FF0E021096941F015
:1021800004014FF0E022116107E04FF0E0210969FE
:1021900021F004014FF0E0221161704710B503F007
:1021A000C7F9012801D002F049FE10BD10B513484F
:1021B000006840F001001149086008464068104975
:1021C00008400E494860084600680E4908400B491F
:1021D00008600846006820F48020086008464068CF
:1021E00020F4FE0048604FF41F008860FFF74EFFA8
:1021F0004FF000600449086010BD0000001002406C
:102200000000FFF8FFFFF6FE08ED00E010B5012129
:10221000164800F01EF9002826D01548018815A0A0
:10222000FEF7AAF812480088401C114908800846A9
:102230000088B0F5967F13DB1448006800F0EEFECE
:102240000B48018812A0FEF797F801201949087081
:10225000002219A119A000F027FE002004490880DF
:102260000121024800F0E6F810BD00000004004023
:10227000E0000020675F68617264776172655F7477
:10228000696D65733D25640D0A000000B8000020EB
:10229000656E74657220706F73742C20675F68615F
:1022A0007264776172655F74696D65733D25640D55
:1022B0000A000000E20000204F4B000041540000E3
:1022C0007FB505460C4601210220FFF731FEADF82F
:1022D0000850ADF804400020ADF80A00ADF8060043
:1022E00001A90E4800F0D2F8012211460B4800F077
:1022F000C1F81D208DF8000002208DF80100032098
:102300008DF8020001208DF803006846FFF7CEFD2E
:102310000021024800F091F87FBD00000004004059
:1023200010B50121054800F094F828B100F0B2FB87
:102330000121024800F07EF810BD000000080040B6
:102340007FB505460C4601210420FFF7F1FDADF8ED
:102350000850ADF804400020ADF80A00ADF80600C2
:1023600001A90E4800F092F8012211460B4800F036
:1023700081F81E208DF8000000208DF80100032058
:102380008DF8020001208DF803006846FFF78EFDEE
:102390000121024800F051F87FBD00000008004014
:1023A00010B50121094800F054F868B108480088C8
:1023B00040F40040064908800121044800F03AF842
:1023C0000021024800F039F810BD00000014004060
:1023D000A80000207FB505460C4601212020FFF70C
:1023E000A7FDADF80450ADF800400020ADF80600A0
:1023F000ADF8020069460E4800F048F80122114687
:102400000B4800F037F80121094800F016F8372092
:102410008DF80C0000208DF80D0002208DF80E00C4
:1024200001208DF80F0003A8FFF740FD7FBD0000DD
:1024300000140040CA430282704721B1028842F072
:102440000102028004E002884FF6FE731A40028007
:10245000704730B50246002000230024158A05EAA3
:102460000103958905EA010413B10CB1012000E0D4
:10247000002030BD1AB183890B43838102E0838938
:102480008B4383817047818470470000002202885B
:102490001D4B98420ED01D4B98420BD0B0F1804F8F
:1024A00008D01B4B984205D01A4B984202D01A4BC9
:1024B000984204D14FF68F731A404B881A43174B3A
:1024C000984207D0164B984204D04FF6FF431A406B
:1024D000CB881A4302808B8883850B8803850A4B3F
:1024E00098420BD0094B984208D00E4B984205D029
:1024F0000D4B984202D00D4B984201D10B7A0386C6
:102500000123838270470000002C01400034014009
:102510000004004000080040000C00400010004093
:1025200000140040004001400044014000480140C8
:1025300010B540F22551194800F0AFF828B340F229
:102540002551164800F032F8144800F061F9C4B281
:102550001348008800F40040B8B91148008840F2E0
:10256000FF31884212DA00210E48FFF78CFF0C4839
:10257000008818B901210B48FFF75FFF0849088858
:10258000411C074A118008490C5405E004480088A2
:1025900040F400400249088010BD0000004800409F
:1025A000A8000020001400403854002010B500227C
:1025B000002340F66A14A14200D100BF0A12012490
:1025C0009440A3B2DC43048010BD21B1828942F45F
:1025D0000052828104E082894DF6FF731A408281A5
:1025E0007047000010B504462048844209D10121FB
:1025F0008803FFF7CDFC00214FF48040FFF7C8FCB3
:1026000032E01B48844209D101214804FFF7A0FCB5
:1026100000214FF40030FFF79BFC25E01548844271
:1026200009D101218804FFF793FC00214FF4802099
:10263000FFF78EFC18E01048844209D10121C8043C
:10264000FFF786FC00214FF40020FFF781FC0BE030
:102650000A48844208D101210805FFF779FC0021CE
:102660004FF48010FFF774FC10BD000000380140EB
:102670000044004000480040004C00400050004032
:1026800002460020B1F5007F00D100BF13880B4047
:102690000BB1012000E00020704770B50246002415
:1026A00000230025002040F66A16B14200D100BF89
:1026B000C1F3421501F01F03012606FA03F3012DB1
:1026C00002D19689334006E0022D02D1168A3340AA
:1026D00001E0968A33400C12012606FA04F41688AB
:1026E000344013B10CB1012000E0002070BDF0B502
:1026F0000346002400260025002040F66A17B94250
:1027000000D100BF1846C1F3421401F01F06012793
:1027100007FA06F5012C01D10C3004E0022C01D19E
:10272000103000E014301AB107682F43076002E050
:102730000768AF430760F0BD2DE9F04786B0054656
:102740000E460024A24600BFA1460027B08900B172
:1027500000BF2F462C8A4CF6FF700440F0880443DB
:102760002C82AC894EF6F3100440B08831890843BE
:10277000718908430443AC81AC8A4FF6FF400440A2
:10278000B0890443AC8201A8FFF712FC1F488742BE
:1027900002D1DDF810A001E0DDF80CA0A88900F45A
:1027A000004040B10AEBCA0000EB0A103168490052
:1027B000B0FBF1F807E00AEBCA0000EB0A10316841
:1027C0008900B0FBF1F86420B8FBF0F004012009A7
:1027D000642101FB1089A88900F4004040B1322037
:1027E00000EBC900B0FBF1F000F00700044308E083
:1027F000322000EB09106421B0FBF1F000F00F0073
:1028000004432C8106B0BDE8F08700000038014089
:1028100001468888C0F308007047C1F3080282802F
:10282000704700BFFEE7490050EAC12018BF0420EE
:102830004A0D18BF40F0010040F2FF72B2EB515F49
:1028400008BF40F00200012808BF0520704730385B
:102850000A2801D2012070470020704700BF70474E
:10286000F0B503460C461646002500201EE0675DC5
:102870003909675D07F00F02092903DC01F1300710
:102880001F5402E001F137071F54092A06DC02F148
:10289000300703EB000C8CF8017005E002F13707FC
:1028A00003EB000C8CF801706D1C801C471CB742B8
:1028B000DDDB00271F54F0BD10B50420FFF75AFCE4
:1028C000104800681049B0FBF1F0104908700D483D
:1028D00000680D49B0FBF1F44FF47A7044430120D5
:1028E0000B4908804FF0E020006940F002004FF0F3
:1028F000E021086108464461006940F00100086178
:1029000010BD00000000002040420F002800002001
:102910002A00002030B50446002504E04FF47A7008
:1029200000F004F86D1CA542F8D330BD70B5034625
:1029300000224FF0E02675690D4E367803FB06F451
:102940004FF0E026B16910E04FF0E026B069884210
:102950000BD0884202D20E1A324402E02E1A0E44E4
:1029600032440146A24200D300E0EDE700BF70BD53
:102970002800002000BF054A128802F04002002A09
:10298000F9D0C2B2014B1B1D1A80704700380140BC
:1029900010B54FF44070FFF7C1FAFFF78DFF4FF409
:1029A000E13001F0D9FD4FF4E13001F01BFE41F6BA
:1029B0001F4141F63F70FFF7C3FC40F27121042034
:1029C00000F06CF801F032FC00F07AF800F000F949
:1029D00010BDF0B504460B46002153E0585C30288A
:1029E00006DB585C392803DC585C3038C5B215E08A
:1029F000585C612806DB585C662803DC585C573855
:102A0000C5B20BE0585C412806DB585C462803DC65
:102A1000585C3738C5B201E00020F0BD481C185C96
:102A2000302808DB481C185C392804DC481C185C7A
:102A30003038C6B21BE0481C185C612808DB481C13
:102A4000185C662804DC481C185C5738C6B20EE0D7
:102A5000481C185C412808DB481C185C462804DC2C
:102A6000481C185C3738C6B201E00020D5E7B2EB4D
:102A7000610F01DC4810D0E706EB051004EB61079D
:102A80003870891C585C0028A8D104EB61073870A5
:102A90004810C2E710B5FFF7EBF910BD70B5054659
:102AA0000C4645F25550FFF7F7F92846FFF7E8F9CD
:102AB0002046FFF7EBF9FFF7DBF9FFF7D1F970BD1F
:102AC00008B501210420FFF753FAF020ADF800000B
:102AD00010208DF8030003208DF802006946044899
:102AE000FFF723F9F0210248FFF7B3F908BD000012
:102AF0000008014010B5FFF74BFF0BA0FDF73CFCB1
:102B000000F080F8002000F00DFA00F051F841F6D6
:102B10001F4142F20F70FFF7D3FB00F04DFA02F0B5
:102B20008BF8002010BD000068656C6C6F206E6231
:102B3000696F742E2E2E0D0A0000000010B5044699
:102B40000A48008800F4004070B100200749098855
:102B5000C1F30E01064A5054114606A0FDF70CFCC5
:102B600014B100200149088010BD0000A800002019
:102B70003854002025730D0A0000000070B504468B
:102B800000250948008800F4004058B1002006499B
:102B90000988C1F30E01054A505421461046FDF73D
:102BA0004BFD0546284670BDA80000203854002083
:102BB00010B520210548FFF74CF94FF4FA70FFF7E4
:102BC000A9FE20210148FFF746F910BD0010014081
:102BD00008B501211020FFF7CBF97020ADF80000F7
:102BE00010208DF8030003208DF802006946044888
:102BF000FFF79BF870210248FFF72DF908BD000090
:102C00000010014010B510210548FFF722F94FF4DC
:102C1000FA70FFF77FFE10210148FFF71CF910BD85
:102C2000001001409DE04F48008800F4004000285B
:102C3000F8D04DA14D48FDF7FFFC58B10120FFF73A
:102C40007DFF4BA0FDF798FB01221146104600F0D6
:102C5000B7F986E04DA14548FDF7EEFC002830D0DD
:102C60004C4800F07FFA4B4801684BA0FDF784FB0D
:102C70004E4802684E4801684648006800F0F4F982
:102C800010B94CA0FDF778FB00F0D8FA5148FDF7D9
:102C9000E5FC440800234F4A21463E48006800F006
:102CA00013FA50B94CA0FDF767FB00214F48FFF71E
:102CB000EAFB01214D48FFF7C0FB0120FFF73EFF73
:102CC0004FE04BA12948FDF7B7FC90B14A4A4B4968
:102CD0004B4800F081FA4948474902684948FFF7E4
:102CE00078FE484948A0FDF747FB0120FFF726FF83
:102CF00037E047A11D48FDF79FFCA8B146A0FDF7AE
:102D00003BFB4B494B4800F041FA494802684948AF
:102D1000016849A0FDF730FB4648006800F07EF9E5
:102D20000120FFF70BFF1CE047A11048FDF784FCD2
:102D300018B10120FFF702FF13E046480078012890
:102D40000CD100212948FFF778FB012211461046DB
:102D500000F036F900203F49087002E00120FFF73B
:102D6000EDFE60E7A80000202B49500038540020F9
:102D70006E62696F74206E6574776F726B20726516
:102D80006769737465642E2E2E0D0A002B45534F10
:102D900043000000B8000020675F736F636B6574C9
:102DA0005F69643A25640D0A00000000B00000204D
:102DB000B40000206E62696F7420636F6E6E65638D
:102DC00074207365727665722073756363657373BF
:102DD0000D0A0000385D0020736F636B6574206519
:102DE000736F73656E64206F6B0D0A000004004002
:102DF0002B45534F4E4D4900385F0020DC0000202A
:102E0000D8000020386100200D0A25730D0A00004B
:102E10002B45534F455252006E62696F7420736F99
:102E2000636B6574206572726F720D0A000000009A
:102E3000D4000020D00000202B45534F4552523D76
:102E400025642C25640000006175746F2D72656225
:102E50006F6F7400E20000201CB50748006848B995
:102E60000548042100230A02CDE9001003A10D4802
:102E700002F02EFB1CBD0000E40000206E62696FB2
:102E8000745F70726F636573735F736F636B657488
:102E90005F6261636B5F726573756C745F7461739D
:102EA0006B000000252C000870B504460E46154640
:102EB000002018490880FF2C0AD800BF1648008857
:102EC00000F040000028F9D01349091D0C8003E0F0
:102ED000214612A001F0EEFBCEB1C5B10FE00D48C6
:102EE000008800F4004038B13046FFF747FE00B1DB
:102EF00009E00020074908800A20FFF70BFD681E43
:102F000080B2051EEBD100BF0DB9012070BD0020BD
:102F1000FCE70000A80000200048004025730D0ACF
:102F20000000000070B5044654B14FF496720AA137
:102F30000AA0FFF7B9FF05460EA0FDF71DFA09E04C
:102F40004FF4967204A111A0FFF7AEFF054614A03E
:102F5000FDF712FA284670BD4F4B000041542B5329
:102F60004D3D554E4C4F434B5F464F524556455293
:102F70000000000041542B534D3D554E4C4F434BE8
:102F80005F464F52455645520D0A000041542B539F
:102F90004D3D4C4F434B5F464F5245564552000006
:102FA00041542B534D3D4C4F434B5F464F5245567A
:102FB00045520D0A0000000010B5FFF74DFF10BD8F
:102FC000F0B591B004460D461646402101A8FDF724
:102FD000DFFB2B46224609A101A80096FDF7D8F990
:102FE00001A90BA0FDF7C8F94FF496720AA101A838
:102FF000FFF75AFF0746384611B0F0BD41542B4544
:10300000534F433D25642C25642C256400000000AB
:1030100025730D0A000000004F4B000030B589B049
:103020000446202101A8FDF7B3FB224608A101A810
:10303000FDF7AEF901A909A0FDF79EF94FF49672CC
:1030400008A101A8FFF730FF0546284609B030BDAA
:1030500041542B45534F434C3D25640025730D0AC5
:10306000000000004F4B0000F0B591B004460D4643
:103070001646402101A8FDF78BFB2B46224609A1ED
:1030800001A80096FDF784F901A90CA0FDF774F9D9
:103090004FF496720BA101A8FFF706FF07463846CA
:1030A00011B0F0BD41542B45534F434F4E3D256465
:1030B0002C25642C222573220000000025730D0AA4
:1030C000000000004F4B00002DE9F041ADF5816D8F
:1030D00006460F4615461C464FF4806102A8FDF7D0
:1030E00057FB012C01D0022C08D13B4632460FA1E0
:1030F00002A8CDE90054FDF74BF906E03B46324605
:1031000010A102A80095FDF743F902A912A0FDF74E
:1031100033F94FF4967212A102A8FFF7C5FE80465C
:1031200040460DF5816DBDE8F081000041542B450E
:10313000534F53454E443D25642C25642C25732C58
:103140002564000041542B45534F53454E443D25C3
:10315000642C25642C25730025730D0A00000000E3
:103160004F4B000070B50446002505A10648FDF749
:1031700063FA0546AD1D28783038206070BD000028
:103180002B45534F43000000385400202DE9F041F7
:1031900004460D4600260CA10D48FDF74DFA0746E2
:1031A0000CA1FDF743FA06463046FDF731FA2060E0
:1031B00008A10020FDF73AFA06463046FDF728FA46
:1031C0002860BDE8F08100002B45534F4E4D49006B
:1031D000385400202C0000002DE9F04104460D4633
:1031E0001646002710A11248FDF726FA804611A1C5
:1031F000FDF71CFA07463846FDF70AFA20600DA1D4
:103200000020FDF713FA07463846FDF701FA28605B
:1032100008A10020FDF70AFA07463A4606A1304603
:10322000FDF7B6F8BDE8F0812B45534F4E4D4900F0
:10323000385400202C0000002573000070B5ADF557
:10324000027D00244FF4007102A8FDF7A1FA4FF4AB
:1032500080713948FDF77AFA384800210160017120
:1032600000F0B4FF3649086802F0F8FE05462A4629
:103270000B4634A13148FDF78BF800202F49087127
:103280000B46324832A1026802A8FDF781F802A875
:10329000FDF7E4F905462A463CA101A8FDF778F8B8
:1032A0003BA12548FDF7F9F93D4801682248FDF7A3
:1032B000F4F93CA12048FDF7F0F940A11E48FDF7C4
:1032C000ECF9414801681C48FDF7E7F93AA11A48B2
:1032D000FDF7E3F93DA11848FDF7DFF941A11648D4
:1032E000FDF7DBF901A91448FDF7D7F941A1124810
:1032F000FDF7D3F902A91048FDF7CFF93DA10E481B
:10330000FDF7CBF90C493DA0FDF736F80A48FDF76B
:10331000A5F945002A4608494148FFF7A1FA0446A5
:103320003F4940A0FDF728F8214647A0FDF724F8C3
:103330000DF5027D70BD0000385C0020C00000204B
:10334000A000002025302E3166000000BC000020C7
:103350007B226461746173747265616D73223A5B80
:103360007B226964223A222573222C2264617461D3
:10337000706F696E7473223A5B7B2276616C75653F
:10338000223A25737D5D7D5D7D000000256400008F
:10339000504F5354202F646576696365732F000086
:1033A000C80000202F64617461706F696E747320AF
:1033B000485454502F312E310D0A00006170692D90
:1033C0006B65793A00000000CC000020486F7374F0
:1033D0003A6170692E6865636C6F7564732E636FF4
:1033E0006D0D0A00436F6E74656E742D4C656E67CB
:1033F00074683A000D0A0D0A00000000675F736FE1
:10340000636B65745F65736F73656E645F6461742D
:10341000615F7372633A0D0A25730D0A00000000A4
:10342000385D0020675F736F636B65745F65736FF2
:1034300073656E645F646174615F646573743A0D93
:103440000A25730D0A000000646174615F6465738E
:10345000745F6C656E3A0D0A25640D0A0000000069
:103460002DE9F04105460E461C4807681C480068D7
:10347000001D01F047F950B91948006890F82C1068
:103480000120884017490968814316480160681C7B
:1034900038B936B112480168091D134801F070F9B6
:1034A0001AE07C190E4800684460BC4207D20C4800
:1034B0000168091D0D48006801F048F90CE0084852
:1034C0000168091D0A48006801F040F909480068D0
:1034D000844201D207480460BDE8F0814C0000201E
:1034E0003800002050000020FC0300204000002095
:1034F0003C0000206800002010B5044601F04CF9A3
:1035000024480068401C234908602348006840B9EB
:10351000214804600846006801280DD100F0EEF94A
:103520000AE01E48006838B91B480068C06AE16AB2
:10353000884201D81848046019480068401C18499E
:10354000086008460068606494F82C1001208840E8
:1035500014490968084313490860E16A01EB8101D5
:10356000114A02EB8100211D01F00AF901F058F91E
:103570000A48006868B108480068C06AE16A884281
:1035800007D24FF0805009490860BFF34F8FBFF357
:103590006F8F10BD4800002038000020540000202C
:1035A00064000020500000202C01002004ED00E009
:1035B00010B501F0F1F810480068D0B90F4801F0DB
:1035C000B5F80F4801F0B2F80C480E4908600C48F5
:1035D0000D49086000221021052001F049FC064930
:1035E00008600846006820B108A10348006801F09F
:1035F0000BFA01F015F910BD7C000020100400202A
:10360000240400207400002078000020546D7251C2
:103610000000000070B523E001F064FB134800686F
:1036200008B9012000E00020054602F00DF9BDB9FF
:1036300001F0B2F80D48C068C468201D01F062F8BE
:103640000B480068401E0A4908600A480068401E8E
:103650000849086001F0E4F8204600F060F800BF77
:10366000044800680028D7D170BD0000E80300209E
:10367000480000204400002070B504460D46206C30
:1036800070B1216CE0680844E0606168E0688842DD
:1036900001D32068E0602846226CE168FDF709F854
:1036A00070BD2DE9F04104460F4615464FF0000865
:1036B000A66B206C40B9206860BB606801F0FEFF1B
:1036C00080460020606025E07DB93946226CA06804
:1036D000FCF7EFFF216CA0680844A060D4E901105A
:1036E000884217D32068A06014E03946226CE06855
:1036F000FCF7DFFF216CE068401AE0602168E068B9
:10370000884203D2216C6068401AE060022D01D12A
:1037100006B1761E701CA0634046BDE8F08110B56E
:103720000446206B01F0B4F8204601F0B1F810BD5A
:103730000146084A126812680AB9012200E0002214
:103740000A600A6822B9034A1268D268106800E069
:10375000002070477400002030B54FF4A043174894
:1037600000F007042CB1C01D20F00700134C041B0F
:103770001B1B0246124C22600024114D6C60D018B5
:10378000083820F007000F4C206000240D4D2D68F4
:103790006C600C4D2D682C601146441A4C60094C2D
:1037A00024680C60084D4C682C60084D4C682C60F7
:1037B0004FF00044064D2C6030BD0000380400205E
:1037C0008800002090000020980000209400002035
:1037D0009C00002000BFFFF71DFF0648006801287D
:1037E000F9D94FF0805004490860BFF34F8FBFF301
:1037F0006F8FF0E72C01002004ED00E02DE9F0418F
:1038000006460D4617469846069C0DB9246000E012
:103810002760E66325640121204601F047FC84F817
:1038200050800020A064BDE8F08100002DE9F05F29
:1038300082460F4690469B460A9E0C9C4FEA8801A2
:10384000A522206BFCF77AFFA8F10100216B01EBA8
:10385000800929F0070909F0070008B9012000E0F4
:10386000002028B940F22B321BA120A0FCF784FDD8
:10387000002507E0795D04F134004155785D00B919
:1038800002E06D1C102DF5D300BF0021432001552F
:10389000202E00D31F26E662E66400202065201D4E
:1038A00000F051FF04F1180000F04DFF2461C6F153
:1038B0002000A06164620020606584F858005A46C8
:1038C0005146484600F000FC20600B9808B10B9868
:1038D0000460BDE8F09F00002E2E5C4672656552C4
:1038E000544F535C7461736B732E63004572726F37
:1038F000723A25732C25640D0A00000010B50024CF
:1039000007E004EB84010F4A02EB810000F00EFF98
:10391000641C202CF5D30C4800F008FF0B4800F085
:1039200005FF0B4800F002FF0A4800F0FFFE0A48BE
:1039300000F0FCFE04480949086004480849086092
:1039400010BD00002C010020AC030020C0030020AB
:10395000D4030020E8030020FC0300203C000020EA
:103960004000002010B50146164800E000680368DA
:103970008B42FBD30246436813448B4204D1436815
:103980004C682344436001460A464B68134404686C
:10399000A34211D10C4C03682468A34208D04B68A1
:1039A0000468646823444B6003681B680B6005E08F
:1039B000054B1B680B6001E003680B60884200D078
:1039C000016010BD88000020900000202DE9F0412A
:1039D00004460D4616461F464FF0000865602461F8
:1039E000B5420CD8F01BA169884202D34FF0010800
:1039F00011E0211D0948006800F0A8FE0BE0BE425E
:103A000004D2BD4202D34FF0010804E0211D044856
:103A1000006800F09BFE4046BDE8F0817800002081
:103A20007400002070B5054600F0B6FEA86B08B91A
:103A3000012400E0002400F0F3FE204670BD70B5C4
:103A4000054600F0A9FEA86BE96B884201D101246C
:103A500000E0002400F0E4FE204670BD2DE9F341B3
:103A60000D460098846C00272CB940F6CE121AA19E
:103A70001EA0FCF781FCA06BE16B884201D2012003
:103A800000E0002028B940F6CF1213A117A0FCF7E0
:103A900073FCA06BE16B88421BD294F945602A4607
:103AA00069462046FFF7FDFD0746701C60B9606A55
:103AB00008B9012000E0002050B904F1240001F011
:103AC00069FE28B1012703E0701C40B284F845006C
:103AD00000BF3846BDE8FC812E2E5C4672656552FB
:103AE000544F535C71756575652E63004572726F36
:103AF000723A25732C25640D0A000000F8B50546BE
:103B00000F4613480068C068C468201D00F0FAFD25
:103B1000E069012818D1A06941192B463A46204690
:103B2000FFF754FF80B1002003462A46014600906B
:103B3000204601F053FF06462EB94FF4027205A14C
:103B40000AA0FCF719FC00BF2046616A8847F8BD4F
:103B5000740000202E2E5C4672656552544F535CF3
:103B600074696D6572732E63000000004572726F98
:103B7000723A25732C25640D0A000000F0B587B059
:103B800070E0039800280CDA04AE2EB940F2E72268
:103B90003AA140A0FCF7F0FBD6E90020B1689047BD
:103BA00000BF039800285DDB059C606908B901200F
:103BB00000E0002010B9201D00F0A4FD02A800F0D4
:103BC000C7F8054603980A284AD2DFE800F009053D
:103BD000072C2E4506082D2F00BF00BF00BF00BFD9
:103BE0000498A269811803462A462046FFF7EEFE94
:103BF000C0B12046616A8847E069012812D10020DF
:103C000000900498A169421800231946204601F04B
:103C1000E5FE07462FB940F2213218A11DA0FCF79E
:103C2000ABFB00BF1DE000BF1BE000BF0498A0611C
:103C3000A06908B1012000E0002028B94FF44E72BD
:103C40000EA114A0FCF798FBA06941192B462A4647
:103C50002046FFF7BBFE04E0204600F019FE00E01E
:103C600000BF00BF00231A4603A90E48006801F0F8
:103C700039F9002885D107B0F0BD00002E2E5C4632
:103C800072656552544F535C74696D6572732E632F
:103C9000000000004572726F723A25732C25640D86
:103CA0000A0000007C000020F8B505460C4601F033
:103CB00019F8684600F04CF80646009820BB44B955
:103CC000B54206D801F0C0FD31462846FFF716FF81
:103CD0001CE03CB10E480068006808B9012000E013
:103CE00000200446A91B22460A48006800F0A2FEF4
:103CF00001F0AAFD50B94FF0805007490860BFF3AA
:103D00004F8FBFF36F8F01E001F09EFDF8BD000003
:103D1000780000207C00002004ED00E00A490968DA
:103D2000096809B9012100E0002121B14FF0FF31FC
:103D3000064A116006E004490968C968C868034A70
:103D400041681160704700003C00002068000020BE
:103D500070B5044601F0FCFB054607480068854243
:103D600004D200F00BF80120206001E00020206068
:103D700001480560284670BD840000202DE9F84305
:103D80002DE021480068C06805681F480068C068C9
:103D9000C468201D00F0B6FC2046616A8847E069CF
:103DA00001281CD1A0694619AE4207D9666024617A
:103DB000211D1548006800F0C9FC10E000200346F2
:103DC0002A4601460090204601F008FE07462FB91A
:103DD00040F292320DA113A0FCF7CEFA00BF0A48C0
:103DE0000068006808B9012000E000200028C8D061
:103DF0000548D0F800800F480068034908600D4866
:103E0000C0F80080BDE8F883740000202E2E5C46C8
:103E100072656552544F535C74696D6572732E639D
:103E2000000000004572726F723A25732C25640DF4
:103E30000A000000780000200B480068401C08B908
:103E4000012000E0002020B9F42208A112A0FCF714
:103E500093FA00BF502080F31188BFF34F8FBFF358
:103E60006F8F00BF00BFFEE72C0000202E2E5C46A7
:103E700072656552544F535C706F727461626C6509
:103E80005C525644535C41524D5F434D335C706FFE
:103E900072742E63000000004572726F723A2573CF
:103EA0002C25640D0A00000008B500BF6846FFF726
:103EB0003FFC044620460099FFF7F6FEFFF75EFE42
:103EC000F4E770B5044600F067FC94F945501AE039
:103ED000A06C38B100212046FFF7C0FD88B100F08A
:103EE000CFFD0EE0606A08B9012000E0002038B97B
:103EF00004F1240001F04EFC18B100F0C1FD00E017
:103F000003E0681E45B2002DE2DC00BFFF2084F80C
:103F1000450000F085FC00F03FFC94F9445010E0AF
:103F2000206908B9012000E0002048B904F1100020
:103F300001F030FC08B100F0A3FD681E45B200E0BE
:103F400001E0002DECDC00BFFF2084F8440000F00D
:103F500067FC70BD2DE9F04104464FF0000800F009
:103F6000C1FE3E48006808B9FFF7F6FB3C48006810
:103F7000204000285FD1A4B1083404F0070080B1CC
:103F800004F00700C0F10800044404F0070008B979
:103F9000012000E0002020B9BF2232A13BA0FCF7A5
:103FA000EBF9002C47D03D480068844243D83C4E92
:103FB0003046056801E02E462D686868A04202D2AE
:103FC00028680028F7D125480068854233D030683A
:103FD00000F10808286830606868001B102813D9B1
:103FE0002F1907F0070008B9012000E0002020B9D0
:103FF000EC221CA125A0FCF7BFF96868001B7860C3
:104000006C603846FFF7AEFC244968680968081AF6
:10401000224908600846006822490968884203D29C
:104020001E4800681F4908600D4968680968084310
:1040300068600020286001F007FC08F0070008B95C
:10404000012000E0002028B94FF4967205A10FA0CE
:10405000FCF792F94046BDE8F08100009000002096
:104060009C0000202E2E5C4672656552544F535CB6
:10407000706F727461626C655C4D656D4D616E67E9
:104080005C686561705F342E630000004572726F7A
:10409000723A25732C25640D0A000000940000205C
:1040A00088000020980000200648006830B10549CB
:1040B000096801F15000096D491C01600148006860
:1040C0007047000038000020001F4FF0807303602D
:1040D000001F21F001030360001F034B036014382D
:1040E0000260203870470000393E00082DE9F84F83
:1040F00082464FF0000B2AF0030A504601F0DAFF27
:10410000009001F0ABFF8046074A084B01F0BEFD6E
:1041100006460022064B01F0B7FE044601F0DCFC27
:1041200083465846BDE8F88F7644CF7701405F3F1D
:10413000000018402DE9F84F82464FF0000B2AF09E
:10414000030A504601F0B6FF009001F087FF804659
:10415000074A084B01F09AFD0646074A074B01F053
:10416000EDFC044601F0B8FC83465846BDE8F88FE4
:10417000D7A3703D0AF7653FCDCCCCCCCC6C47C003
:1041800070B503460C46154600210026002200BFEC
:1041900013E0985C414008260BE001F0800020B15C
:1041A000312080EA4100C1B201E04806010E701ED4
:1041B000C6B2002EF1DC501CC2B2A242E9DBA94219
:1041C00001D0012070BD0020FCE7000010B5E32005
:1041D00000F05CF9074908603220FEF79BFBE52000
:1041E00000F054F9034948603220FEF793FB00F0D9
:1041F000ABF910BDA000002010B540210A48FDF722
:1042000028FE80210848FDF724FE0220FEF78EFBE1
:1042100040210548FDF71FFE0220FEF787FB4021E5
:104220000148FDF716FE10BD000C014008B5012144
:104230000820FDF79DFEC020ADF8000014208DF889
:10424000030003208DF8020069460648FDF76DFD66
:1042500080210448FDF7FFFD40210248FDF7FBFDEA
:1042600008BD0000000C014010B540210A48FDF7D0
:10427000F0FD80210848FDF7EEFD0220FEF756FB19
:1042800040210548FDF7E7FD0220FEF74FFB4021E6
:104290000148FDF7DEFD10BD000C014070B50025A2
:1042A000002480211048FDF7D6FD00BF18E0402112
:1042B0000D48FDF7CEFD0220FEF738FB40210A48ED
:1042C000FDF7C9FD6006040E80210748FDF7B8FD23
:1042D00008B1601CC4B20220FEF728FB681CC5B2FE
:1042E000082DE4DB204670BD000C014070B504468B
:1042F000002540211248FDF7ACFD00BF1DE004F091
:10430000800020B180210E48FDF7A5FD03E080214B
:104310000B48FDF79EFD6006040E0220FEF706FB2B
:1043200040210748FDF797FD0220FEF7FFFA4021E4
:104330000348FDF78EFD681CC5B2082DDFDB70BD9C
:10434000000C014010B580210A48FDF784FD402192
:104350000848FDF780FD0220FEF7E8FA80210548B5
:10436000FDF777FD0220FEF7E1FA40210148FDF755
:1043700070FD10BD000C014010B580210A48FDF70A
:1043800068FD40210848FDF764FD0220FEF7CEFAE3
:1043900040210548FDF75FFD80210348FDF75BFDE7
:1043A0000220FEF7C3FA10BD000C014010B5044610
:1043B00080211448FDF74FFD0220FEF7B7FA402197
:1043C0001048FDF748FD0220FEF7B0FA0EE0601E2F
:1043D00084B2002C03DD0120FEF7A8FA06E00AA053
:1043E000FBF7CAFFFFF7C8FF012010BD8021054879
:1043F000FDF726FD0028EAD140210248FDF729FDFE
:104400000020F2E7000C01407368743230206932FA
:104410006320776169742061636B206661696C65F4
:10442000642121210D0A000070B505460E46144690
:10443000FFF788FF002141EA4501C8B2FFF756FFA8
:1044400041F28830FFF7B2FF18B1FFF795FF012066
:1044500070BD3046FFF74AFF41F28830FFF7A6FFF4
:1044600018B1FFF789FF0120F2E75CB12078FFF770
:104470003DFF41F28830FFF799FF18B1FFF77CFF4D
:104480000120E5E7FFF778FF0020E1E7F8B50446F3
:1044900000250026FFF756FF8020FFF727FF41F297
:1044A0008830FFF783FF18B1FFF766FF0020F8BDE3
:1044B0002046FFF71BFF41F28830FFF777FF18B166
:1044C000FFF75AFF0020F2E7FFF73CFF8120FFF7DC
:1044D0000DFF04E0FFF736FF8120FFF707FF41F2F1
:1044E0008830FFF763FF0028F4D14620FEF712FA68
:1044F000FFF7D4FE8DF80000FFF77EFEFFF7CEFE3B
:104500008DF80100FFF778FEFFF7C8FE0546FFF7BC
:10451000ABFEFFF731FF2A4602216846FFF730FE67
:104520009DF801009DF8001000EB012086B2E32CFD
:1045300004D13046FFF7FEFD074603E03046FFF7A3
:10454000D5FD07463846B2E710B50022FE214020CF
:10455000FFF76AFF10BD000010B586B004460121C8
:1045600044F20400FDF704FD1C48FEF73BF84FF44D
:104570000070ADF8140003208DF8160018208DF897
:10458000170005A91648FDF7D0FB4FF48060ADF881
:10459000140004208DF8170005A91148FDF7C5FB8C
:1045A00001940020ADF80800ADF80A00ADF80C0049
:1045B000ADF810000C20ADF80E0001A90748FEF779
:1045C000BBF8012240F225510448FEF790F8012182
:1045D0000248FDF7FAFF06B010BD000000380140A8
:1045E0000008014010B586B0044601210820FDF7FF
:1045F000BFFC01218804FDF79BFC2A48FDF7F2FF70
:104600004FF48060ADF8100003208DF812001820E0
:104610008DF8130004A92448FDF787FB4FF40060D0
:10462000ADF8100004208DF8130004A91E48FDF712
:104630007CFB00940020ADF80400ADF80600ADF856
:104640000800ADF80C000C20ADF80A0069461548CA
:10465000FEF772F801211348FDF7B7FF012240F27F
:1046600025511048FEF743F827208DF8140001204B
:104670008DF8150003208DF8160001208DF8170025
:1046800005A8FDF713FC41F61F416320FDF7A2FECC
:1046900000200649088000210548FDF7CEFE06B03F
:1046A00010BD000000480040000C0140A8000020A0
:1046B000001400400FB438B505A800900F48009AC8
:1046C0000499FBF747FE002000900C48FBF7C6FF5B
:1046D00085B200240DE000BF40210948FDF7D0FF5E
:1046E0000028F9D00548015D0548FEF796F8601CE2
:1046F00084B2AC42EFDB38BC5DF814FB38580020C4
:104700000048004001460A69D1E901309860D1E9CA
:10471000010358605068884201D1886850600020C9
:1047200008611068401E10601068704700F10801B1
:1047300041604FF0FF31816000F10801C16001610B
:1047400000210160704700210161704710B50246E9
:104750000B685C1C0CB9106907E002F1080000E06E
:104760004068446824689C42FAD944684C604C68AC
:10477000A160886041600A611468641C146010BD07
:1047800042684A6093688B609368596091600861E1
:1047900003685B1C0360704710B500BF502080F3B6
:1047A0001188BFF34F8FBFF36F8F00BF0B480068B6
:1047B000401C0A4908600846006801280DD10848D5
:1047C0000068C0B208B9012000E0002028B94FF409
:1047D000BD7204A10EA0FBF7CFFD10BD2C00002080
:1047E00004ED00E02E2E5C4672656552544F535C1A
:1047F000706F727461626C655C525644535C4152D6
:104800004D5F434D335C706F72742E630000000087
:104810004572726F723A25732C25640D0A000000F0
:1048200010B50B48006828B940F2811209A114A004
:10483000FBF7A2FD06480068401E054908600846CF
:10484000006820B9002080F3118800BF00BF10BDB0
:104850002C0000202E2E5C4672656552544F535C2E
:10486000706F727461626C655C525644535C415265
:104870004D5F434D335C706F72742E630000000017
:104880004572726F723A25732C25640D0A00000080
:1048900070B506463546002E35D0083D2C461A49DF
:1048A00060680968084008B1012000E0002028B9CC
:1048B0004FF4A07215A11FA0FBF75EFD206808B998
:1048C000012000E0002028B940F241120FA119A0F8
:1048D000FBF752FD0C4960680968084098B12068F0
:1048E00088B90949606809688843606000F0FAF98E
:1048F0001449606809680844124908602046FFF7B7
:1049000031F800F0A1FF70BD9C0000202E2E5C4607
:1049100072656552544F535C706F727461626C655E
:104920005C4D656D4D616E675C686561705F342ECE
:10493000630000004572726F723A25732C25640D76
:104940000A00000094000020064800684FF47A71C5
:10495000B0FBF1F0401E4FF0E021486107200861F4
:10496000704700000000002070B5FBF7CDFC054645
:10497000102D11D305F1E02090F8F0431048007895
:10498000844201DB012000E0002028B94FF42A72A4
:104990000CA117A0FBF7F0FC1948006800F4E060D8
:1049A00018490968884201D8012000E0002028B990
:1049B0004FF42E7203A10EA0FBF7DEFC70BD0000C9
:1049C000300000202E2E5C4672656552544F535CB9
:1049D000706F727461626C655C525644535C4152F4
:1049E0004D5F434D335C706F72742E6300000000A6
:1049F0004572726F723A25732C25640D0A0000000F
:104A00000CED00E034000020024600200BE0084BD3
:104A100053F8303033B9064B43F8301003EBC00382
:104A20005A6002E0401C0828F1D300BF7047000024
:104A3000EC0000202DE9F04105460E4617462C46B5
:104A4000FFF7AAFE94F94400401C10B9002084F836
:104A5000440094F94500401C10B9002084F845003A
:104A6000FFF7DEFEA06B28B93A46314604F1240078
:104A700000F036F82046FFF724FABDE8F081000088
:104A800001200149086070475C00002070B50446B1
:104A90000D462CB940F6063207A10CA0FBF76CFCC2
:104AA0000E48016818312046FFF750FE01212846C4
:104AB000FEF7D6FC70BD00002E2E5C467265655276
:104AC000544F535C7461736B732E63004572726F45
:104AD000723A25732C25640D0A000000380000206E
:104AE00070B505460E4614462DB940F6313209A17F
:104AF0000DA0FBF741FC1048016818312846FFF76C
:104B00003FFE0CB14FF0FF3621463046FEF7A8FCC1
:104B100070BD00002E2E5C4672656552544F535C8A
:104B20007461736B732E63004572726F723A2573F2
:104B30002C25640D0A0000003800002070B50546E1
:104B40002C46002D4BD02649E06A0968C96A884284
:104B500045D2A06900F0004028B921480068C06A29
:104B6000C0F12000A061E16A01EB81011D4A02EB66
:104B700081016069884201D1012000E0002050B32A
:104B8000201DFFF7BFFD78B9E06A00EB80001549F2
:104B900051F8200040B994F82C10012088401249A7
:104BA00009688143104801600D480068C06AE062EE
:104BB00094F82C10012088400B49096808430A49E1
:104BC0000860E16A01EB8101064A02EB8100211DC8
:104BD000FFF7D6FD03E002480068C06AE06270BDDE
:104BE000380000202C0100205000002010B50446A1
:104BF0002CB940F6C13205A109A0FBF7BDFB0C485A
:104C0000006820600B480068606010BD2E2E5C4676
:104C100072656552544F535C7461736B732E6300FD
:104C20004572726F723A25732C25640D0A000000DC
:104C3000600000204C0000201CB51A4800210B46E3
:104C40008222CDE9001018A1194800F041FC044669
:104C5000012C02D100F088FE0446012C15D100BFC2
:104C6000502080F31188BFF34F8FBFF36F8F00BFC9
:104C70004FF0FF300F49086001200F490860002005
:104C80000E49086000F08AF80BE0601C08B10120B2
:104C900000E0002028B940F2847209A10DA0FBF7C2
:104CA0006BFB1CBD6C00002049444C45000000001B
:104CB000D537000868000020540000204C00002078
:104CC0002E2E5C4672656552544F535C7461736B53
:104CD000732E63004572726F723A25732C25640D32
:104CE0000A00000002480068401C01490860704743
:104CF0007000002010B51B48006818B101201A4947
:104D000008602DE000201849086018480068B0FAD3
:104D100080F0C0F11F0404EB8400154951F8200015
:104D200008B1012000E0002028B940F6F62211A1C8
:104D300015A0FBF721FB04EB84010D4A02EB810077
:104D400041684968416000F1080142688A4202D125
:104D50004168496841604168C9680F4A116000BFF5
:104D600010BD0000700000205C00002050000020FA
:104D70002C0100202E2E5C4672656552544F535C08
:104D80007461736B732E63004572726F723A257390
:104D90002C25640D0A000000380000201CB52248B4
:104DA000014609780191FF210246117001460978F8
:104DB00000919DF8001001F050011C4A117007216C
:104DC0001B4A116009E01A490968491E184A116016
:104DD0009DF800104906090E00919DF8001001F0A1
:104DE00080018029EFD0124909680902104A116038
:104DF0001146098801F4E06111600B4A01991170B4
:104E00000C48006840F470000A49086008460068D1
:104E100040F070400860FFF797FD002006490860E9
:104E2000FBF73CFA00201CBD00E400E0300000204D
:104E30003400002020ED00E02C00002010B500BF61
:104E4000502080F31188BFF34F8FBFF36F8F00BFE7
:104E500000F084FB18B14FF080500449086000BF97
:104E6000002080F3118800BF10BD000004ED00E0B9
:104E70002DE9F84305460E4690460DB1012000E0AD
:104E8000002028B94FF4C4720DA112A0FBF774FAE8
:104E90000EB9002701E005FB06F707F15400FFF704
:104EA00059F8044644B104F1540943464A46314690
:104EB00028460094FEF7A2FC2046BDE8F8830000D7
:104EC0002E2E5C4672656552544F535C7175657544
:104ED000652E63004572726F723A25732C25640D3E
:104EE0000A0000002DE9FF4782B005460E461F4626
:104EF0004FF0000A2C462CB940F2DC4261A166A0BA
:104F0000FBF73AFA0EB9206C08B9012000E0002046
:104F100028B940F2DD425BA15FA0FBF72DFA00F05B
:104F200007FB08B9049808B9012000E0002028B95F
:104F30004FF49C6253A158A0FBF71EFA00BFFFF785
:104F40002BFCD4F83890B9F1000F3DD0D4F80C8088
:104F500031462046FEF790FBDFB9A9F10100A063BE
:104F6000206810B9FFF7A0F86060206908B9012037
:104F700000E0002010BB04F1100000F00BFCE8B1D1
:104F80004FF0805048490860BFF34F8FBFF36F8FD9
:104F900014E0C4F80C80606A08B9012000E0002029
:104FA00060B904F1240000F0F5FB38B14FF08050F7
:104FB0003D490860BFF34F8FBFF36F8FFFF730FCA1
:104FC000012006B0BDE8F087049818B9FFF728FC67
:104FD0000020F6E7BAF1000F04D16846FFF706FE9D
:104FE0004FF0010AFFF71CFCFFF77CFEFFF7D4FB34
:104FF00094F94400401C10B9002084F8440094F94E
:105000004500401C10B9002084F84500FFF708FC5B
:1050100004A9684600F00CFA40BB2046FEF702FDEA
:10502000F0B1206830B9FFF7B7FB6068FFF786FD85
:10503000FFF7F6FB04F124000499FFF727FD204653
:10504000FEF73FFF00F000FC00287FF478AF4FF040
:10505000805015490860BFF34F8FBFF36F8F6EE725
:105060002046FEF72EFF00F0EFFB68E72046FEF734
:1050700028FF00F0E9FB2046FEF7D4FC0028EED024
:1050800000209EE72E2E5C4672656552544F535C9D
:1050900071756575652E63004572726F723A25737E
:1050A0002C25640D0A00000004ED00E070B50546F3
:1050B0000E462C462CB940F21B121EA122A0FBF773
:1050C0005BF9FFF769FBD4E90F12206801FB0200CE
:1050D00060600020A0632068A060E06B401E226C2E
:1050E000216800FB0210E060FF2084F8440084F88F
:1050F00045009EB9206908B9012000E00020A8B948
:1051000004F1100000F046FB80B14FF080501249CE
:105110000860BFF34F8FBFF36F8F07E004F11000FB
:10512000FFF704FB04F12400FFF700FBFFF778FB17
:10513000012070BD2E2E5C4672656552544F535C43
:1051400071756575652E63004572726F723A2573CD
:105150002C25640D0A00000004ED00E02DE9FF435A
:1051600083B0064688461D464FF0000934462CB9E8
:1051700040F2D92260A165A0FBF7FEF8B8F1000F5C
:1051800001D1206C08B9012000E0002028B940F2CC
:10519000DA2259A15DA0FBF7EFF8022D02D1E06BF6
:1051A000012801D1012000E0002028B940F2DB22D3
:1051B00051A156A0FBF7E0F800F0BAF908B905983C
:1051C00008B9012000E0002028B940F2DE224AA1FF
:1051D0004EA0FBF7D1F800BFFFF7DEFAA06BE16B42
:1051E000884201D3022D38D12A4641462046FEF797
:1051F00058FA0746A06C68B129462046FEF72EFCF7
:1052000028B34FF0805045490860BFF34F8FBFF37C
:105210006F8F1CE0606A08B9012000E0002068B9C7
:1052200004F1240000F0B6FA88B14FF080503B49F9
:105230000860BFF34F8FBFF36F8F08E03FB14FF0AF
:10524000805036490860BFF34F8FBFF36F8FFFF771
:10525000E7FA012007B0BDE8F083059818B9FFF719
:10526000DFFA0020F6E7B9F1000F04D101A8FFF73B
:10527000BDFC4FF00109FFF7D3FAFFF733FDFFF74D
:105280008BFA94F94400401C10B9002084F84400C3
:1052900094F94500401C10B9002084F84500FFF740
:1052A000BFFA05A901A800F0C3F8F0B92046FEF73F
:1052B000C6FBA0B104F110000599FFF7E7FB2046FB
:1052C000FEF7FFFD00F0C0FA002885D14FF08050B6
:1052D00012490860BFF34F8FBFF36F8F7CE7204602
:1052E000FEF7EFFD00F0B0FA76E72046FEF7E9FDA5
:1052F00000F0AAFA0020ADE72E2E5C4672656552DA
:10530000544F535C71756575652E63004572726FFD
:10531000723A25732C25640D0A00000004ED00E0AC
:105320002DE9F05F80468A4615461E4644462CB954
:1053300040F29F3235A13AA0FBF71EF8BAF1000FF8
:1053400001D1206C08B9012000E0002028B94FF4F9
:1053500068722EA132A0FBF70FF8022E02D1E06B8B
:10536000012801D1012000E0002028B940F2A1323B
:1053700026A12BA0FBF700F8FFF7F6FA00BF50219B
:10538000EFF3118081F31188BFF34F8FBFF36F8F5D
:1053900000BF0746A06BE16B884201D3022E2BD1E0
:1053A00094F945B0324651462046FEF77AF90BF1A2
:1053B0000100C8B9A06C40B131462046FEF74EFB53
:1053C000B8B1B5B10120286013E0606A08B90120C6
:1053D00000E0002068B904F1240000F0DBF940B1DE
:1053E0003DB10120286004E00BF1010040B284F8D7
:1053F00045004FF0010901E04FF0000900BF87F3BD
:10540000118800BF4846BDE8F09F00002E2E5C4684
:1054100072656552544F535C71756575652E6300F6
:105420004572726F723A25732C25640D0A000000D4
:105430002DE9F04104460D462CB940F6CB3219A1B6
:105440001DA0FAF799FF2DB940F6CC3215A11AA08C
:10545000FAF792FFFFF7A0F91B4807682868401C7D
:1054600008B9002619E0194920680968884204D063
:105470006068B84201D801260FE06068381A2968D0
:10548000884209D228686168791A401A2860204643
:10549000FFF7ACFB002600E00126FFF7C1F930461C
:1054A000BDE8F0812E2E5C4672656552544F535C08
:1054B0007461736B732E63004572726F723A257359
:1054C0002C25640D0A0000004C0000206000002024
:1054D0002DE9FF4F85B0804689461746DDE912ABBE
:1054E000B800FEF737FD064656B15C20FEF732FDE8
:1054F00004460CB1266304E03046FFF7C9F900E02A
:1055000000247CB10020CDE900ABCDE902403A4651
:1055100049464046089BFEF789F92046FDF7ECFF17
:10552000012501E04FF0FF35284609B0BDE8F08FB6
:105530000549096809B9012005E00449096809B964
:10554000022000E00020704754000020700000207E
:1055500001490868704700004C0000202DE9F04127
:105560004FF0000841480068002872D140480068A8
:10557000451C3F480560EDB93E480068006808B921
:10558000012000E0002028B940F6D9123AA13FA03E
:10559000FAF7F2FE37480768404800683549086066
:1055A0003E4807603E480068401C3D490860FEF7E1
:1055B000B5FB00BF3B48006885423CD300BF2D4887
:1055C0000068006808B9012000E0002020B14FF019
:1055D000FF30344908602DE026480068C068C46880
:1055E0006668B54202D22F48066023E0201DFFF70F
:1055F00089F8A06A18B104F11800FFF783F894F84D
:105600002C10012088402849096808432649086071
:10561000E16A01EB8101254A02EB8100211DFFF7C0
:10562000AFF82349E06A0968C96A8842C7D34FF0D6
:105630000108C4E700BF1E480068C06A00EB800094
:105640001A4951F82000012801D94FF0010805E05E
:10565000FFE718480068401C1649086016480068B3
:1056600008B14FF001084046BDE8F081700000200D
:105670004C0000203C0000202E2E5C4672656552D6
:10568000544F535C7461736B732E63004572726F79
:10569000723A25732C25640D0A000000400000209A
:1056A0006000002068000020500000202C01002035
:1056B00038000020580000205C00002070B505462E
:1056C0002C460026002D4BD026480068844201D18C
:1056D000012000E0002028B940F6C76222A127A0DF
:1056E000FAF74AFE206D28B940F6C9621EA123A030
:1056F000FAF742FE206D401E2065E16CE06A8842A8
:105700002ED0206D60BB201DFEF7FCFF78B9E06A4B
:1057100000EB80001D4951F8200040B994F82C108E
:10572000012088401A490968814319480160E06CEA
:10573000E062E06AC0F12000A06194F82C10012022
:10574000884013490968084311490860E16A01EB80
:1057500081010E4A02EB8100211DFFF711F801269D
:10576000304670BD380000202E2E5C4672656552B2
:10577000544F535C7461736B732E63004572726F88
:10578000723A25732C25640D0A0000002C010020BC
:105790005000002070B50646F068C4682CB940F689
:1057A00061321AA11EA0FAF7E7FD04F11800FEF716
:1057B000A9FF1F480068A8B9201DFEF7A3FF94F8B1
:1057C0002C10012088401B490968084319490860CA
:1057D000E16A01EB8101184A02EB8100211DFEF70D
:1057E000CFFF04E004F118011448FEF7C9FF144983
:1057F000E06A0968C96A884204D901250120114973
:10580000086000E00025284670BD00002E2E5C4692
:1058100072656552544F535C7461736B732E6300F1
:105820004572726F723A25732C25640D0A000000D0
:1058300070000020500000202C010020D403002024
:10584000380000205C00002070B500240026344899
:10585000006828B94FF4FD6232A137A0FAF78CFD39
:10586000FEF79AFF2E480068401E2D490860084642
:10587000006800284FD13448006800284BD024E04D
:105880003248C068C46804F11800FEF73BFF201DD1
:10589000FEF738FF94F82C10012088402C49096845
:1058A00008432B490860E16A01EB8101294A02EBB8
:1058B0008100211DFEF764FF2749E06A0968C96A73
:1058C000884202D30120254908602048006808B9B1
:1058D000012000E000200028D2D00CB1FEF71EFA13
:1058E0001F48056865B100BFFFF738FE10B1012001
:1058F0001A4908606D1E002DF6D100201849086075
:105900001648006838B10126300716490860BFF311
:105910004F8FBFF36F8FFEF783FF304670BD0000DF
:10592000700000202E2E5C4672656552544F535C09
:105930007461736B732E63004572726F723A2573D4
:105940002C25640D0A00000048000020D40300202C
:10595000500000202C010020380000205C000020B6
:105960005800002004ED00E01CB50024FDF720FEE7
:105970000B48006858B10B481F2100234FF4827276
:10598000CDE9001008A10A48FFF7A2FD04462CB992
:1059900040F2331207A10DA0FAF7EEFC20461CBD21
:1059A0007C00002080000020546D7220537663003C
:1059B000A93E00082E2E5C4672656552544F535C1A
:1059C00074696D6572732E63000000004572726F1A
:1059D000723A25732C25640D0A0000002DE9FF475B
:1059E00004460D4616461F46DDF830804FF000098C
:1059F0002CB94FF4D37217A11CA0FAF7BDFC1F48B5
:105A0000006810B3009501960294062D15DAFFF791
:105A10008FFD022808D100234246694617480068D6
:105A2000FFF79CFB814610E000231A4669461348A5
:105A30000068FFF793FB814607E000233A4669467A
:105A40000E480068FFF76CFC8146484604B0BDE88C
:105A5000F08700002E2E5C4672656552544F535CF1
:105A600074696D6572732E63000000004572726F79
:105A7000723A25732C25640D0A0000007C0000207A
:105A800010B500290AD00878002807D005487844C6
:105A9000FBF740FD002801D0002010BD02487844EB
:105AA00010BD0000260800001E08000010B50029E7
:105AB0000AD00878002807D005487844FBF72AFD6B
:105AC000002801D0002010BD0248784410BD00001D
:105AD000160800000E08000021F00042A2F16052FA
